:020000040800F2
:10000000008001209D3A0008E93A0008E93A00081A
:10001000E93A0008E93A0008E93A0008000000005F
:10002000000000000000000000000000E93A0008A5
:10003000E93A000800000000E93A0008B13400087D
:10004000E93A0008E93A0008E93A0008E93A000804
:10005000E93A0008E93A0008E93A0008E93A0008F4
:10006000E93A0008E93A0008E93A0008E93A0008E4
:10007000E93A0008E93A0008E93A0008E93A0008D4
:10008000E93A0008E93A0008E93A000800000000EF
:10009000000000000000000000000000E93A000835
:1000A000E93A0008E93A0008E93A0008E93A0008A4
:1000B000E93A0008E93A0008E93A0008E93A000894
:1000C000E93A0008E93A0008E93A0008E93A000884
:1000D000E93A0008E93A0008E93A0008000000009F
:1000E000E93A0008E93A0008E93A0008000000008F
:1000F000000000000000000000000000E93A0008D5
:1001000000000000E93A0008E93A0008E93A00086E
:1001100000000000000000000000000000000000DF
:10012000E93A0008E93A0008E93A0008E93A000823
:10013000E93A000800000000000000000000000094
:10014000000000000000000000000000E93A000884
:10015000E93A0008E93A0008E93A0008E93A0008F3
:10016000E93A0008E93A0008000000000000000039
:10017000000000000000000000000000000000007F
:1001800000000000E93A0008000000000000000044
:10019000E93A000810B5054C237833B9044B13B184
:1001A0000448AFF300800123237010BD880B0020AA
:1001B0000000000024190108084B10B51BB10849C4
:1001C0000848AFF300800848036803B910BD074B27
:1001D000002BFBD0BDE81040184700BF0000000016
:1001E0008C0B002024190108840B00200000000063
:1001F000154B002B08BF134B9D46A3F5803A0021F9
:100200008B460F461348144A121A06F0E9FB0F4BAF
:10021000002B00D098470E4B002B00D098470020B1
:10022000002104000D000D48002802D00C480BF0FE
:100230001FF906F0A3F92000290003F030FB05F0B8
:10024000FDFB00BF0000080000800120000000004E
:1002500095380008880B0020A415002071B4000810
:10026000F5C30008F0B5C578124A0D44EDB2D5705B
:1002700083780F0A3B44DBB293704478547006785D
:1002800016709F4205D9601CC0B2507008B9013683
:100290001670C9B28D420CDA0133DBB20549937096
:1002A0003BB94B780133DBB24B7013B90B78013398
:1002B0000B70F0BDC413002010B5094C2368014633
:1002C00003F10800FFF7CEFF064A23681178197280
:1002D000517859729178D2789972DA7210BD00BF54
:1002E000D4130020C41300200023114A194622F819
:1002F00013100133DBB2042BF9D100230D4819464A
:1003000000EB43120133DBB2042B5176F8D10A4BD8
:100310000A484FF480621A800023194600EB03124A
:100320000133DBB2042B9180F8D1054A137070477A
:1003300058140020D8130020AC0B0020D414002047
:10034000AE0B0020284A2DE9F0411388274E1446B1
:1003500001339BB2B3F5FA4F28BF4FF480531A0A0A
:1003600042EA032292B20025042D07D0013506EBA4
:10037000051737F80C7C9742F6D1E9E723801C4C2F
:10038000DFF868C0002323701E46042B1BD01D011C
:100390000CEB050703F1010EB7F80480134F5FFA69
:1003A0008EFEB8F1000F0BD106B123707C19A2802C
:1003B000E18068B901460422204606F011FB0CE0FA
:1003C00073460126E1E706B123700020BDE8F08105
:1003D000064B02885A53438863803D4440232B7266
:1003E0002046BDE8F08100BFAC0B0020D4140020F3
:1003F000AE0B002004282DE9F84FA44E00F07081C8
:10040000A349A44FA44AA54D3C680D60032815607C
:100410008A460ED1637E03F00F03032B40F07585EF
:10042000238A002B40F071859D4B08221A7000F042
:100430006BBC02286CD19B4AD3780133DBB2D370FA
:1004400063B993780133DBB293703BB953780133CE
:10045000DBB2537013B9137801331370924B00223F
:100460001A80637E328003F0FD01052909D1A37E45
:100470000133DBB2782BA37640F04785627600F03B
:1004800044BD002B00F04185228A8548002A37D0E0
:10049000A27E511EA176002A40F03785E27E082A0E
:1004A00004D0591E012909D8052A07D100236376F3
:1004B0008023037001F0E0FD00F033BC042A9CBFF0
:1004C0000321914003F00F0394BFC9B230210132E0
:1004D000013BA176E276072B00F21785DFE813F0E7
:1004E0007B0208000A00CD031505CD031505CD03D9
:1004F000002271E20423037001F0BEFD00F030BC65
:1005000003F00F03032B40F0008508230370FBE387
:10051000052811D1654B1B689B88002B00F0F584E2
:100520000C3D1560604A0D60002313803B603380F2
:100530005B4B08221A70D1E0363DAB7B452B40F077
:10054000E4842A7C6B7C03EB02233288934200F321
:10055000DC8433802B7D9F0640F0D7846F7D002F95
:1005600040F0D384524A138891460BB95288B2B1F5
:10057000EA7D5049112A07D1CA8B4FF6FF7082429B
:1005800002D1098C914238D0EA8B9A4240F0BD8466
:10059000484B1A8CB9F802309A4240F0B68402F007
:1005A000D5F84FF6FF739842804640F0AE84EB7D5D
:1005B000404C062B00F0CE80112B1ED0012B40F0BA
:1005C000A48494F82230082B40F09F84002384F800
:1005D0002230A38C4FF6F67293428CBF0933083356
:1005E000A3846B8BEB83AB8B2B84B9F800306B83CC
:1005F000B9F80230AB8300F083BC33882E4CCAF8C4
:1006000000401C3B33802B8D83B9284A2B4B136051
:10061000B5F824E0B5F822C0B5F81A80B5F81C90FA
:10062000002103F140074FF6FF750BE002F096F84A
:100630004FF6FF73984240F06884E6E7988820B947
:1006400010330121BB42F9D319E07045F8D1D888A5
:1006500008B16045F4D1188828B9B3F802B0BBF1ED
:10066000000F06D12CE0A84203D1B3F802B0AB458D
:1006700026D04045E4D158884845E1D120E0002902
:1006800000F04384136000F040BC00BFBC130020A6
:10069000D0130020D4130020C0130020A214002087
:1006A000C8130020A80B0020D0140020CC13002079
:1006B000681400206C14002096140020D41400202C
:1006C00001B11360B54ACAF8004000231360B44A70
:1006D00002211170B34A1460B34A138002F0E6F9A4
:1006E000B14B1B88002B00F01084B04C03F11C02AE
:1006F00092B26274110A3280AD4A217412680833D2
:10070000117AA1755BBAE38411210023E17584F8A5
:10071000283084F8293093886384D388A384A54B38
:1007200019885B886183A3831388E38353882384B8
:10073000A14B04F136021A6002F010F8C04380B2F7
:1007400008B12085C7E34FF0FF3384F8283084F8E0
:100750002930C0E301F0FCFF404540F0D683A18C76
:10076000608CB4F81AE0B4F81CC0944C8AB204F15E
:10077000800B637E83B1B4F8048090450CD1B4F84B
:100780000680804508D1B4F80080F04504D1B4F863
:100790000280E04500F0398120345C45E9D195F8CC
:1007A0002F3003F03F03022B1DD18548018085497E
:1007B00000230B70884684491C468246042B0FD0C8
:1007C00031F8130001338242DBB24FF00104F5D15E
:1007D000002388F800301A461C46DFF8E0E15EE0AE
:1007E0000CB188F8003095F82F20704B540700F1B9
:1007F0008C83142283F82F2028223280502293F8F1
:10080000290083F82E2093F82D2093F82B406D4F6C
:1008100083F8292093F82C2093F8281083F82820B7
:10082000013093F8272083F8274093F826403C7046
:10083000C0B293F82A7083F82C1083F82B2083F829
:10084000267083F82A4083F82D0060B90131C9B2BF
:1008500083F82C1039B90132D2B283F82B2012B9A7
:10086000621C83F82A20564A6B8C1380AA8CAB84B6
:100870006B8BEB83AB8B2B84B9F800306B83B9F8AF
:1008800002306A84AB8312E34C494FEA431C614453
:10089000487E38B107280BD00133DBB20122042B8C
:1008A000F2D10DE00AB188F80030444C64440DE008
:1008B0001CB1897EA27E9142EED90EEB0C04EBE7CF
:1008C0000AB188F80030002C00F01F83334B3F4AF8
:1008D0001C600323A37623764FF00009042384F8D9
:1008E0001690E37584F81B90AB8CA3806B8CE3802F
:1008F0006B8B2380AB8B6380137823735378637384
:100900009378A3730120D3786076E373208295F8FF
:100910002930E37295F82830A37295F82730637276
:1009200095F826302372FFF7C7FC95F82E2002F0C9
:10093000F003502B4FD91209053A88F80090920025
:100940004B46974244DAE81990F8361000293FD018
:10095000012901D101371EE0022917D190F8371083
:10096000042913D10BB188F800703D4495F8382064
:1009700095F8393043EA0223B3F5007FAAF8003036
:1009800028BF4FF400736382A38224E0E91991F831
:100990003710E9B10F44FFB20123D2E7D41300208E
:1009A000C8130020C0130020D01400206C140020B5
:1009B000CC13002068140020D0130020D81300208E
:1009C000A40B0020AE0B002058140020A80B002020
:1009D0000BB188F800701022AA4B83F82F20A94B86
:1009E00093F82F2042F0020283F82F20022283F88E
:1009F000362083F838200022042183F839202C2265
:100A0000328083F83710602216E29F4A95F82F1043
:100A1000DFF880E2146001F0040000228EF800206C
:100A200000F0FF07F04620B1202362768EF80030F8
:100A3000B9E1944A954892F82E2012094FEA820EA5
:100A4000328880F800E0143ACEEB020203F00F0384
:100A500092B2022B3280834603D101F03F03122B66
:100A60000DD00AB988070AD0EA8C23899A4240F04F
:100A7000DC81844B1A8D63899A4240F0D681C90685
:100A800048D5218A002945D004F10C00FFF7EAFB84
:100A90007F4B95F82A1093F800E07A4A8E4539D1B9
:100AA00092F82B105878884234D192F82CC099785B
:100AB00061452FD192F82D20DB7893422AD1E37340
:100AC000E37E84F80CE06073A173E3B9237EA17E1A
:100AD000A07D591AA1EBD001C9B24FFA81FEBEF137
:100AE000000FE37D0844B8BF4942A3EB9303B8BFAE
:100AF0004FFA81FE03EB0E02C0B2D3B2E37503EBF3
:100B0000D003A0752376012388F80030237EA376D6
:100B100000232382617E01F00F03013B072B00F2CB
:100B2000F481DFE813F008001D0087004301610134
:100B300079018201360198F80020564BD20740F126
:100B4000E48103226276308840221A7000222282D9
:100B5000002800F0D68042221A70FFF7ADFBD0E0EB
:100B600098F80030DB075BD595F82F3003F03F0392
:100B7000122B55D1434B93F82E2002F0F003502B4B
:100B800034D912090023053A8BF8003092009742BD
:100B900029DAE81990F8361029B3012901D1013773
:100BA0001EE0022917D190F83710042913D10BB198
:100BB000364B1F702F4497F8382097F8393043EAA6
:100BC0000223354AB3F5007F138028BF4FF400732A
:100BD0006382A3820AE0E91991F8371019B10F4432
:100BE000FFB20123D3E70BB1284B1F7003236376B9
:100BF00095F82630237295F82730637295F82830DF
:100C0000A37295F82930E3720120FFF755FB4223C8
:100C1000224A88F80030002323823380138073E057
:100C2000202388F8003001F027FA174B1B680022B8
:100C30005A76D8E595F82F30D80731D5CA062FD483
:100C4000238A002B40F061813088013080B2FFF7A9
:100C500033FB98F8003043F0100288F80020328807
:100C60001AB10C4A43F01203137001F005FA012384
:100C70002382082363760023E3761122014B83F855
:100C80002F20D5E06C140020D4130020AE0B0020E0
:100C9000C4130020C8130020A40B0020D01400208F
:100CA0009B060DD595F8342095F8353043EA02239C
:100CB000DAF800201A44CAF800203288D31A3380A8
:100CC000308848B1CF0607D498F8003043F00203CB
:100CD00088F80030FFF7F0FA95F8302095F83130B9
:100CE000A18A03EB02239BB28B4A8B42138000D86C
:100CF00003B911801388638298F80030990700F0D7
:100D00000481864B00221A8001F0B6F9844B1A78D0
:100D1000824B02F0200000F0FF0120B100221A8077
:100D200062761422AAE702F0100000F0FF0530B14D
:100D300019800123238204236376E1769DE71988D5
:100D400061B1D20748BF2582228A32B9628A9142B4
:100D500088BF1A801B88238200E01A800023E37674
:100D6000704B1B68CAF800306C4B1B882BB1238A70
:100D70001BB128333380182207E0694B1B789F078B
:100D800040F1C380282333801022674B83F82F2043
:100D900050E098F80030DD0740F1B780002363761B
:100DA0005F4B10221A7001F067F9AEE0308808B18D
:100DB000FFF782FA95F82F3013F001030CD098F862
:100DC0000030D80745BF072363760623002346BFBC
:100DD000A3762382637613E098F80020D10718D514
:100DE00005226276238290E0308808B1FFF764FA2A
:100DF00095F82F30DA070CD5072363760023A37606
:100E00000120FFF759FA102388F8003001F034F977
:100E10000BE033884BB978E098F80030DB0774D5E5
:100E2000072363760023A3766FE0102385F82F3025
:100E3000282333803C4B502283F82E203A4B227AD1
:100E400083F82A20627A83F82B20A27A83F82C2058
:100E5000E27A83F82D20227B83F82620627B83F8B8
:100E60002720A27B83F82820E27B83F82920062212
:100E7000DA75A2885A84E2889A842C4A11885288AA
:100E800059839A832288DA8362881A84627E02F008
:100E9000100202F0FF012AB1002283F8312083F80A
:100EA000302004E0022283F8302083F831101E4CF9
:100EB0004023A375338863741A0A0023227484F8CC
:100EC000353084F8343084F8323084F8333001F02F
:100ED0003FFCC0436086144C15494523A3730B881F
:100EE00001339BB200220B80190AE27362752275EE
:100EF000A174E3742276627601F028FCC04320835B
:100F0000074B00221A70BDE8F88F054A00231370C2
:100F10003380BDE8F88F00BFA40B0020D014002060
:100F2000C8130020C01300206C1400206814002097
:100F3000A60B002040BA80B270470000064B002983
:100F4000198008DD054B1B68834204D08AB2014634
:100F5000184605F047BC7047D0140020C01300208D
:100F60002DE9F84F0D464549454E00230B701A46B2
:100F70004FF00C0C082B424C26D00CFB03F706EB71
:100F8000070836F807E0BEF1000F19D0B8F8027074
:100F9000B7B1B0F80080F04512D1B0F802E0BE451C
:100FA0000ED102B10B700C2202FB0344294606222B
:100FB000201D05F017FC334B1B78A372BDE8F88F9A
:100FC0000133DBB20122D5E700220A7016460C235A
:100FD000082A10D003FB02F704EB0708E75B37B9D8
:100FE000B8F802701FB9002E37D00A7035E0013210
:100FF000D2B20126ECE7234F234E244A97F800A0F3
:101000000023337013709E46984699469C464FF0D5
:101010000C0B082B11D00BFB0347BF7AC7EB0A0759
:101020006745C4BF98464FF0010E03F10103C4BFEA
:101030005FFA87FCF146DBB2EBE7B9F1000F01D0B4
:1010400086F800C0BEF1000F01D082F8008013784E
:101050000B704FF00C0808FB034801460422404681
:1010600005F0C0FB0622294608F1040005F0BAFB92
:10107000044B1B7888F80A30BDE8F88FB50B0020C8
:10108000B80B0020190C0020B60B0020180C002013
:10109000F8B50A4C0A4E0023237025460C27207809
:1010A000072809D80422002107FB006005F098FCFE
:1010B0002B7801332B70F2E7F8BD00BFB50B002091
:1010C000B80B00200E4A0F4813880F4910B40E3B8E
:1010D0001380428B0B8853400C4A148823420BD157
:1010E000848B4B8852886340134205D1811D5DF883
:1010F000044B1A30FFF734BF5DF8044B704700BF54
:10110000BC1300206C14002068140020641400201C
:10111000F8B52D4D2B880027292B2F8000D8F8BD3E
:101120002A4CA38AB3F5807F03D0B3F5007F39D072
:10113000F8BD274EE28C33889A4244D1228D7388C1
:101140009A4240D104F1160104F11C00FFF708FF98
:1011500002236375062204F11601277504F12000AD
:1011600005F040FB06221B4904F1160005F03AFB8E
:1011700006221849A01805F035FB062204F12001CB
:10118000204605F02FFBA38BE384E38B2385338874
:10119000A3837388E38308232373062363732A23BB
:1011A0002B80F8BD0A4BE18C1A8891420BD1228D1D
:1011B0005B889A4207D104F1160104F11C00BDE8D6
:1011C000F840FFF7CDBEF8BDBC1300206C14002022
:1011D00068140020AF0B00202DE9F843474CE18B49
:1011E0004FF6FF738AB29A4206D1238C934203D101
:1011F0000622434920466FE0424E43483388434D20
:1012000053400288134205D1228C73884088534092
:10121000034205D03E4B1A885B882A806B8001E030
:1012200029806A803B4AB5F800C0B5F802803A4F81
:101230000023137018464FF00C0E082B0ED00EFB37
:1012400003F107EB0109795A614503D1B9F802109E
:10125000414538D00133DBB20120EEE700B1137015
:101260000622FF21254805F0BBFB062200212B4862
:1012700005F0B6FB06222A492A4805F0B3FA0622F1
:101280002749294805F0AEFA2B88E3846B8823852B
:101290003388A3837388E383002301222375A37318
:1012A000637406236275E273A374082263731F4B91
:1012B000227422731E4A1A6004211E4BE1742A22F2
:1012C0001A80BDE8F88300B11370134A0B480C2153
:1012D00001FB03210431062205F084FA062210499D
:1012E000104805F07FFA0823124A23730023637322
:1012F00013880E331380BDE8F88300BF6C14002000
:10130000BC0A010868140020641400201A0C002094
:1013100060140020B50B0020B80B00208C140020B6
:10132000AF0B00207214002082140020D013002084
:10133000A2140020BC1300207047000010B5074B1A
:10134000036003F120025C330446C0F8BC20C0F8FF
:10135000C030BC3003F044FE204610BD100F010821
:10136000A0F1BC00EAE7A0F1C000E7E710B5044631
:10137000FFF7E4FF204602F0DCFA204610BDA0F1A2
:10138000BC00F3E7A0F1C000F0E7000073B5002453
:101390001D4E00942346224621461C481C4D01F058
:1013A000A8FF234603220221304603F073FC304697
:1013B000184E19492A4604F02FFB102221463046C8
:1013C00005F00EFB3046052103F053FF03F05CFFF0
:1013D0002346FF2202211148114C03F063FA03F067
:1013E0007DFF112300931E221D231F21204600F0A4
:1013F00075FF2A460B49204604F00EFB0A4802B04E
:10140000BDE8704001F01CBB240C00201E0C002025
:1014100098010020FC0C00203D1300081C0D00204A
:10142000300D0020391300080C0D00201FB54FF4BB
:10143000E131254803F02CFE012300220821224837
:1014400003F03AFE2149224803F0DCFD4FF07E50C4
:1014500003F0C0FF1F4903A801F053FF039A1E4980
:101460001E4801F0D5F81E49194803F0CBFD0323AF
:101470000093C0222123A82103A801F03AFF48F6D7
:10148000B8020399174801F0F1F9042216491548EA
:1014900001F036FA154902460D4803F0B3FD114834
:1014A00001F082FB124B134A1349002808BF1A4669
:1014B000074803F0A7FD094801F0B6F84FF07E5049
:1014C00003F088FFF7E700BF240C0020CD0A0108D5
:1014D000E00C0020A20100209C010020300D002023
:1014E000D80A01080C0D0020F20A0108F70A0108C9
:1014F000C70A0108C20A01080C0B01080B6818474B
:10150000142200210E3005F06BBA07B500F10E0170
:10151000684601F0F6FE009B0020DAB262F3070095
:10152000C3F3072262F30F20C3F3074262F31740AD
:101530001B0E63F31F6003B05DF804FB07B500F1F9
:101540001201684601F0DDFE009B0020DAB262F372
:101550000700C3F3072262F30F20C3F3074262F3CD
:1015600017401B0E63F31F6003B05DF804FB07B563
:1015700000F11601684601F0C4FE009B0020DAB2BB
:1015800062F30700C3F3072262F30F20C3F307429D
:1015900062F317401B0E63F31F6003B05DF804FB9A
:1015A00007B500F11E01684601F0ABFE009B00206C
:1015B000DAB262F30700C3F3072262F30F20C3F32A
:1015C000074262F317401B0E63F31F6003B05DF820
:1015D00004FB302301F8023B130902F00F02092A31
:1015E00094BF3032373201F8012D1A46002BF3D167
:1015F0007047000007B5002300931A4619460348B8
:1016000001F077FE03B05DF804FB00BFB80D0020C9
:101610002DE9F0438FB004468846914600212022F0
:1016200006A805F0DDF9FF231A461946009304A821
:1016300004F14C0501F05DFE43220499284601F0B7
:1016400015F9013000F0D58001238DF818308DF8A0
:10165000193063680EA91BBA002741F8243D0626FD
:10166000042207A88DF81A608DF81B7005F0BAF8EF
:101670004FEA19230EA98DF82030802321F82A3D46
:1016800002220DF122008DF8219005F0ABF81C220A
:1016900006A9284601F034F904F108092022394648
:1016A00006A805F09DF93246494606A805F09AF8C5
:1016B000102206A9284601F023F92022394606A85F
:1016C00005F08EF9202206A9284601F019F9013EFD
:1016D000F8D182228DF81920532263238DF81A2025
:1016E0003D228DF818308DF81B308DF81F203523E2
:1016F000072249468DF81C308DF820200123062250
:101700000DF122008DF81D308DF821308DF81E80EE
:101710000C2605F067F838488DF8286005F090FD34
:1017200006308DF8290034490DF12A0005F026FD18
:10173000E27A0CA92046FFF74CFF227B0DF1320123
:101740002046FFF746FF627B0DA92046FFF741FFC9
:101750001E2206A9284601F0D3F8B8F1030F26D1BE
:101760003223E17B8DF818308DF81B10A37B217C90
:101770008DF81A308DF81C108DF82030617CE37ED6
:101780008DF81D10042236218DF82130237F8DF82D
:1017900019208DF81E108DF81F208DF8223032464A
:1017A000637F8DF8233006A9284601F0A9F8372376
:1017B0008DF8183006238DF819308DF81C300F2362
:1017C00001228DF81D303A238DF81A208DF81E3035
:1017D00003223B238DF81B208DF81F300922FF23A5
:1017E00006A928468DF8203001F08AF8284601F035
:1017F000DBF90FB0BDE8F0831E0B01082DE9F047BF
:101800008CB005468846164601F05AFE05F14C0498
:101810000746204601F08AF8002808DC01F050FE57
:10182000C01B404512D8322003F0E2FDF1E724222C
:1018300003A9204601F0B6F89DF80C30022B19D10F
:10184000204600F0E5FF432814D101E0FF20E4E04A
:10185000049B1BBA3360062205F108010AA804F0B4
:101860008FFF68B933682A68934209D36A68934244
:1018700006D80AE00026204600F0EAFF3046CCE019
:10188000204600F0E5FF0020C7E0042207A905F18B
:101890000E0004F0A7FFCC26204600F093FF013E87
:1018A000FAD105F1240805F12809204601F052F883
:1018B0000028E0DD204600F085FF332800F091800D
:1018C00019DC01282CD002DC0028EED096E0032899
:1018D0002DD0062840F09280204600F073FF074686
:1018E000042205F11E012046FFB201F05BF84FF023
:1018F000000A043F31E03A285AD004DC352807D0EA
:10190000362832D07AE03B285ED0FF28CDD075E073
:10191000204600F057FF204600F054FFC6B2C4E74F
:10192000204600F04FFF042205F1120127E0204677
:1019300000F048FF0422074605F11601204601F099
:1019400031F8FFB24FF0000A043FBA45ADDA204645
:1019500000F038FF0AF1010AF7E7BA45A5DA204698
:1019600000F030FF0AF1010AF7E720462F4600F0A9
:1019700029FF57F81A3F82462BB9042239462046E0
:1019800001F010F891E7394601A801F0BAFC2046B1
:1019900001F030F8019B8342EFD05FFA8AFA00270A
:1019A000FBB29A4581D0204600F00CFF0137F7E7E3
:1019B000204600F007FF04224946204600F0F2FFCF
:1019C000AB6A1BBAAB6270E7204600F0FBFE042254
:1019D00005F12C01204600F0E5FFEB6A1BBAEB6233
:1019E00063E7204600F0EEFE04224146204600F068
:1019F000D9FF6B6A1BBA6B622B6356E7204600F077
:101A0000E1FE00275FFA80FAFBB29A453FF44DAF42
:101A1000204600F0D7FE0137F6E70CB0BDE8F087AE
:101A20002DE9F347044605F03FF84FF4FA632746E3
:101A3000B0FBF3F202FB13000130606047F84C0B7F
:101A4000384600F0EBFE4421384600F0CBFE00287B
:101A500000F0868001F034FD00258046A9464FF055
:101A6000030A94F84830032B73D08BB963680133B1
:101A7000636001F025FD4FF47A72C8EB000001218C
:101A8000B0FBF2F2204692B2FFF7C2FD012312E052
:101A9000042B13D163680133636001F011FD4FF42F
:101AA0007A72C8EB00000321B0FBF2F2204692B23A
:101AB000FFF7AEFD022384F8483041E0012B19D135
:101AC00001AA216C2046FFF799FE0228064633D171
:101AD000019B636001F0F4FC4FF47A72C8EB0000E4
:101AE0000321B0FBF2F2204692B2FFF791FD84F899
:101AF000486025E0022B23D101AA216C2046FFF784
:101B00007DFE0528064615D1636A84F848A013B9FE
:101B10004FF461736362A36A13B9636A5B08A362DB
:101B2000E26AA36A0AB95A00E2622363E36A636362
:101B3000012596E7062801D0FF2E01D184F84890B0
:101B4000002D8ED101F0BCFCE36BC8EB0000984285
:101B500087D9384600F062FE636801336360284627
:101B600002B0BDE8F08738B5044601F0A9FC05468F
:101B7000A06B00283DD0626CA91A17D44FF47A707C
:101B800005F57A7291FBF0F300FB1311521A013341
:101B90006264226B59008A42ACBFD21A00222263CF
:101BA000626B9142CCBF0023D31A636394F8483030
:101BB000032B0AD1236B002B07DC042384F8483065
:101BC0002046FFF72DFF013000E0002094F8483058
:101BD000032B00D083B9636B002B0DDC002384F84A
:101BE00048302046FFF78CFC2046FFF719FF0330F2
:101BF00002E005F57A736364A56338BD03460022ED
:101C0000086818609A80704730B50139084610F8A6
:101C1000013F33B12E2BFAD0303B092BF7D90020EE
:101C200030BD18460A2511F8014F6CB10328F6DCC7
:101C30002E2C05D1FF2BF2DC135401300023F2E7E8
:101C4000303C05FB0343EEE7FF2BE8DC0328E6DC32
:101C50001354012030BD000007B5002300931A463D
:101C60001946034801F045FB03B05DF804FB00BFD3
:101C7000BC0D00202DE9F74305460F4601F020FC7E
:101C800005F10804A880291D022202AD204600F0BB
:101C900037FE012325F8023D02222946204600F0A6
:101CA0002FFE4FF48073022229462046ADF80630FD
:101CB00000F026FE0023022229462046ADF8063019
:101CC00000F01EFE02222946204600F019FE0222E4
:101CD0002946204600F014FEB94699F80030DBB1E1
:101CE0003A469046914618F8013B1BB12E2B01D085
:101CF0004246F6E7D61B002E0CDD01220DF1050150
:101D000020468DF8056000F0FBFD3246394620463E
:101D100000F0F6FD4746E0E702A9012201F8033D85
:101D2000204600F0EDFD4FF4807629460222204641
:101D3000ADF8066000F0E4FD022229462046ADF829
:101D4000066000F0DDFD012003B0BDE8F083000077
:101D50002DE9F04186B005468846164601F0B0FBF5
:101D600005F108040746204600F0E0FD002809DCE4
:101D700001F0A6FBC01B404500F2F780804803F04D
:101D800029FBF0E720462F6800F034FE87420390DD
:101D900040F0EE80204600F03BFD352840F0E88022
:101DA000204600F0D7FD0B2840F3E5800C220DEB18
:101DB0000201204600F0F6FDBDF80E20A888BDF80F
:101DC0000C10130A43EA02231BB29AB28842ADF800
:101DD000062001D1002B05DB204600F039FD4FF62F
:101DE000FC70CAE040F20F2313402BB1204600F0F4
:101DF0002FFD4FF6FB70C0E0BDF812703A0A42EAC0
:101E00000727BFB20FB11D461FE0204600F020FD9E
:101E10004FF6FA70B1E001220DF10A01204600F000
:101E2000C1FD9DF80A30CBB99DF80A30002BF2D1E4
:101E3000204600F0C7FC204600F0C4FC204600F01D
:101E4000C1FC204600F0BEFC0135BDF810100B0AA5
:101E5000AAB243EA01239A42DDDB0AE09DF80A3088
:101E60005A1E8DF80A20002BDED0204600F0AAFC76
:101E7000F4E74FF00008002501220DF1050120468E
:101E800000F090FD9DF8053013F0C00F0AD193B11A
:101E90009DF805305A1E8DF8052043B1204600F00C
:101EA00091FCF5E7204600F08DFC8DF805509DF87B
:101EB0000530002BE0D1022202A9204600F072FD7D
:101EC00002220DF10A01204600F06CFD204600F0D0
:101ED00079FC204600F076FC204600F073FC20469A
:101EE00000F070FC02220DF10601204600F05AFDC0
:101EF000BDF80820130A43EA0223012B06D1BDF8DE
:101F00000A00030A43EA0025012D01D0002512E052
:101F1000BDF80620130A43EA0222042A05D020460F
:101F200000F096FC4FF6F77027E03146204600F0AF
:101F300039FD284621E0BDF806100B0AAAB243EA93
:101F400001239A4205F1010503DA204600F03AFC2C
:101F5000F1E708F101081FFA88F847458BD12046C0
:101F600000F076FC4FF6F67007E04FF6FF7004E0E5
:101F70004FF6FE7001E04FF6FD7006B0BDE8F0814F
:101F8000CDCC4C3D2DE9F041054688461746FFF77C
:101F90003BFE044678BB1B4B2A681B689A422CD038
:101FA00001F08EFA05F1080600F00F0101F58061DD
:101FB000304600F017FC012821D13522296830462F
:101FC00000F054FC08B9002411E041462846FFF710
:101FD00051FE0028F7D0304600F0E6FD0028F2D090
:101FE0003A4641F288312846FFF7B2FE04463046B1
:101FF00000F014FC03E0012401E06FF0010420462E
:10200000BDE8F081BC0D002070B50C4C00231426F7
:1020100006FB03F2D8B2115D084D49B9AC1840F087
:102020001003AB54601C132204F0DAFC204670BD90
:102030000133042BECD1002070BD00BFC40D002083
:1020400010B50446007801F0E5F92346221D13F887
:10205000011F03F8011C9342F9D10023237110BD25
:1020600070B5451E041D002615F8010F01F0D2F9C8
:10207000A5422E70F8D170BD2DE9F74F654E664D23
:102080003368664FDC694CB92B78580638D5FFF7B2
:10209000BBFF0446002833D03368D8612B789B07F8
:1020A00002D53B88002B35D1237819060BD503F0D8
:1020B0007F0323702B78326843F002032B70537E2A
:1020C00023F0100353762B78DA065CD418065AD422
:1020D000D90702D5A01DFFF7B3FF2B7813F00C0F23
:1020E00000F08580A079002800F08180E179002946
:1020F00059D001464A4800F0B5FD0546002858D1A0
:102100000025484B29461868FEF718FF3D8003B0AC
:10211000BDE8F08F237813F0600FC5D104F1050BF3
:10212000A046C4EB080918F801AF5FFA89F9BAF1C3
:10213000000F1BD1388801F0FDF8014688F8000037
:10214000A0B1364A384B12881B780192354A106884
:10215000364AC2EB000E1FFA8EF200923048524609
:1021600000F02EFEB9F1040F9ED106E0C345D8D190
:102170002F4A137823F0010313703268537E43F023
:102180001003537690E7A01DFFF76AFF63782BB129
:1021900033689B88E380237843F0400323703368DF
:1021A0000025DD61ADE7A589002DA9D02A4601F003
:1021B00057F91C4B1D481B681E4E181AC0B23070D0
:1021C000284480B201F0B6F81B4B01461870002875
:1021D00097D00020A379327800900195104800F044
:1021E000EFFD134A137843F00203137089E7237855
:1021F0009A0685D5A37933B923703268D36110224A
:102200002A701D467DE73268537E43F010035376F3
:1022100076E700BFD4130020C8130020BC130020B1
:10222000300D0020D0130020250E00206C1400205B
:10223000180E0020240E0020190E002007B50023E0
:1022400000931A461946034801F053F803B05DF8AD
:1022500004FB00BFC00D0020012AF8B507460E465A
:1022600009D11D4800F014FF39460246BDE8F84088
:10227000194800F028BF0A4494B217480A461021B2
:1022800000F07BFD3A4614211348651E00F075FDF1
:10229000B6F5006FADB205D2B5F5006F24BFA4F559
:1022A0000064A5B22A4612210B4800F066FD1023F7
:1022B0001F22A021084800F009FD20231F228021B1
:1022C000054800F003FD1F220021034800F0DCFC5C
:1022D0008306F8D4F8BD00BF300D002037B5BDF936
:1022E00018500095044600F0A7FC01F0C5F8204600
:1022F00003B030BD0B4B82B0186801909DF80430DC
:10230000002063F307009DF8053063F30F209DF86C
:10231000063063F317409DF8073063F31F6002B087
:10232000704700BF260E0020F7B5184D184C2B78CB
:1023300003F00203064603F0FF076BB1154B21784B
:102340001B7800930022144B144800F061FF2B7897
:1023500023F002032B700DE0114D288800F0EAFFF6
:10236000207088B12B88009301460B4B0B483A46EE
:1023700000F04EFF2178304600F0C0FE207801F0DA
:1023800049F800232370012003B0F0BD180E00208F
:10239000190E0020240E00206C140020300D0020A7
:1023A000BC1300202DE9F74F464C2378054613B99E
:1023B00000F070FD20702178DFF8089100293ED0F0
:1023C000414E424F4FF00108284686F8008000F049
:1023D00049FC388040B3DFF80CA199F80010622363
:1023E000009300225346284600F0E9FEBAF80C306C
:1023F000B3F5006F0DD1364B99F800201A70FEF737
:1024000061FE4046FDF7F6FF3B886BB1FEF7E4FE48
:1024100007E040F60602934206D1FEF779FE3B88BC
:1024200013B12846FFF780FF237843B13378DB07E9
:1024300005D5284600F0F0FC224B00221A70254FEB
:10244000254CDFF8A4A0DFF884B001F039F83B6830
:102450000646C3EB000804F18009B8F1000FCAF882
:10246000004001DB022005E0E3691B69F31A002B41
:102470000ADB0320FDF7BEFFBBF8003023B1FEF7F7
:10248000ABFE2846FFF750FF20344C45E5D1B8F1AC
:10249000000F14DBFA363E60DFF830800F4E104F2D
:1024A0000024A51905203D60FDF7A4FFB8F8003011
:1024B00013B1E86800F052FB1034402CF1D103B0A6
:1024C000BDE8F08F250E0020180E0020BC13002060
:1024D000190E0020200E0020D8130020D414002054
:1024E000CC1300206C140020D413002038B50C4607
:1024F000054600F0E5FF0D4BFA30186021462846EE
:1025000000F01EFD0A4B22781A7062785A70A27889
:102510009A70E278DA7022791A7162795A71FDF74D
:10252000E3FEBDE83840FEF7B3BD00BF200E00203B
:10253000AF0B00207FB504ACC0F3074544F8081D7D
:10254000010E41EA0521C6B2124DC0F3072040EA50
:10255000062028806980C2F30740110E41EA00215D
:10256000D5B20D48C2F3072242EA0522028041801B
:102570001A0EC3F3074142EA0122D8B20749C3F356
:10258000072343EA00230B802068054B4A8018602C
:1025900004B070BD68140020601400206414002092
:1025A000260E002007B501920093FFF79FFF059BC1
:1025B000049A0099019803B05DF804EBFFF7BABFE5
:1025C00030B587B00446029300230093FF230D46E5
:1025D000039219461A4605A800F08BFE059B01934D
:1025E0000A9B0093039A029B29462046FFF7DAFFD5
:1025F00007B030BD10B586B0012405928DF81740A4
:10260000059C039202930094FFF7DAFF06B010BD19
:102610001FB5012303928DF80F30039B0192FFF742
:10262000E9FF05B05DF804FB30B5134D85B0FFF749
:10263000B9FE2868D8B1FFF796FA0228044601D0FF
:10264000042815D12868FEF760FF00902868FEF77F
:10265000A7FF01902868FEF78AFF02902868FEF71E
:102660006DFF03469DE80700FFF764FF00E00446A6
:10267000204605B030BD00BF1C0E002010B5013A49
:102680000A4491420CD20C784B7803EB04239BB2A2
:10269000184480B2834284BF013080B20231F0E737
:1026A00007D10B781B02184480B2834284BF0130EB
:1026B00080B210BD08B5142205490020FFF7DEFFE7
:1026C00018B1BDE80840FEF735BC4FF6FF7008BDF5
:1026D0007A140020F7B51A4D6C7C2B7C143C04EB6B
:1026E0000324A4B2064660180F46082205F11A0119
:1026F00080B2FFF7C3FF112F18BF95F82E50114974
:102700001ABF2D11AD000825ADB22A46FFF7B6FF5E
:10271000AC420AD90C4B641BA4B21A78009401464F
:1027200005F12203304600F095FD20B103B0BDE86D
:10273000F040FEF7FFBB4FF6FF7003B0F0BD00BFE7
:102740006C1400208E140020190E0020FFF7B2BF79
:1027500006210148FFF7BEBF300D002011210148BE
:10276000FFF7B8BF300D002007B5002300931A46CD
:102770001946044800F0BDFD034803B05DF804EBC2
:1027800000F0AFBD140E0020260E002007B5002378
:1027900000931A461946034800F0ABFD03B05DF8FC
:1027A00004FB00BF2A0E002003689B6A184713B57C
:1027B00002AB026803F8011D946919460122A04783
:1027C00002B010BD10B50368054C9B6A012221467A
:1027D00098470028CCBF20784FF0FF3010BD00BFD5
:1027E000320E002070B50E464168044619B90846FD
:1027F000FDF7A8FD6060656845B13046FEF79AFBBD
:102800006368A8800834DC60012070BD284670BD74
:10281000406810B1C088FEF78DBB704738B543687B
:102820000446A3B100259D80DD604560C07A00F0BC
:10283000F1FDA07A00F0EEFD207B00F0EBFD2946D3
:1028400004F108000622BDE8384004F0C9B838BDDC
:1028500010B504460448FFF7A5FDE07A00F0DAFD64
:102860000023E37210BD00BF300D00207FB5044689
:10287000224801911546FFF795FD019BEBB1E5B1AB
:102880009DF804209DF80530666843EA0223ADF800
:102890000C309DF806209DF8073043EA0223ADF87E
:1028A0000E30DEB12846FEF745FB6368BDF80C200C
:1028B000F0801A80BDF80E205A806068D8B1237B62
:1028C00053B940F2066000F035FD2A232073003032
:1028D000238118BF01200EE000200CE02846FEF7FF
:1028E00029FB014603A8FDF72DFD606018B104F136
:1028F0000803C360E1E704B070BD00BF300D0020E5
:1029000037B50B46017B0446154649B1ADB2028985
:102910000095054800F07CFC23890344238100E0F6
:10292000084603B030BD00BF300D002038B5084D5B
:1029300004462846FFF736FDE07A00F06BFDA17AE9
:10294000E1720023A372284600F08CF938BD00BF65
:10295000300D002038B5054C05462046FFF722FD16
:10296000E97A204600F07EF938BD00BF300D002026
:102970001FB504460A48FFF715FDE17A61B101234E
:10298000009300220DF10F03054800F018FC012808
:1029900002D19DF80F0001E04FF0FF3004B010BDF0
:1029A000300D002073B5054611480E461446FFF75A
:1029B000F9FCE97AC1B1A4B20094334600220C4874
:1029C00000F0FDFBE97A0446094800F04BF9844227
:1029D000E87A04D100F01EFD0023EB7202E02146EC
:1029E00000F030FD204600E0084602B070BD00BF98
:1029F000300D00201FB5436853B119885B881A0A4F
:102A00000092DBB20A0A03A8C9B200F072FC02E02D
:102A100003A800F066FC9DF80C30002063F307006B
:102A20009DF80D3063F30F209DF80E3063F31740CF
:102A30009DF80F3063F31F6005B05DF804FB0000E4
:102A400010B5054B036000210446416006220830A2
:102A500003F0C6FF204610BD300B010870B588B0EA
:102A6000044602A80E46154600F03BFC04A8FFF7FA
:102A7000E7FF684600F035FC0B48FFF73BFC08A970
:102A800041F81C0D02A8FFF7B9F86A46314602A8C2
:102A9000FFF778FA012805D1236800999B682A4638
:102AA0002046984708B070BD300D0020234B1A68AF
:102AB0002DE9F341D468002C3CD0214B197811F05A
:102AC000020F1E4622D0A77807BB1E4B598CD1801F
:102AD000598B1180998B5180D88CFEF72BFA0838CE
:102AE00080B200F027FC0546A07078B1164B014675
:102AF000164893F8008000F0B5F82A23019000935F
:102B00003A4643462946114800F05AF933781B07E4
:102B100010D5637973B10E4B22791A700D4B2A22AE
:102B20001A700D4B218818682A3902B0BDE8F041AF
:102B3000FEF704BA02B0BDE8F08100BFCC1300205C
:102B4000C81300206C140020250E0020300D00203A
:102B5000190E0020240E0020D013002010B50446CA
:102B6000FEF73AFB0C4B0D481B882A2B08BF0C497B
:102B70000C4B4FF000020DBF0A70627122711A787F
:102B800016BF1A7822F0020242F002021A70BDE863
:102B90001040FFF7C9BB00BFBC130020300D002060
:102BA000190E0020180E002038B5436804460BB9F2
:102BB000002038BD007B0028FAD0012522896573EA
:102BC000002100F04DFC084B62681A600520FDF7FB
:102BD00011FC064B1B88002BEAD004F10800FFF71C
:102BE000BDFF284638BD00BFCC130020BC13002019
:102BF00007B5002300931A461946034800F079FBF5
:102C000003B05DF804FB00BF2E0E002038B5B0F90C
:102C10000030013304460D4604D1342204490548EE
:102C200002F0DCFAE268636805B91B04136038BD82
:102C3000700B0108B50B010837B504464FF0FF359E
:102C4000009504F1780502F0DBF8102200212846F7
:102C500003F0C6FE2846BDF9181002F00AFB204614
:102C600003B030BD51B1FF2917BF054B054B0620FE
:102C700000FB01310CBF58884888704708467047F0
:102C80003C0E0020340E0020F8B500F178061746FF
:102C900004460D4630460021FFF7B8FF07F01F013C
:102CA0002943204602F084F80021204602F080F8F3
:102CB0003B06C5B204D50021204602F079F8C5B222
:102CC00030460121FFF7A2FF2846F8BD2DE9F0416B
:102CD00000F17806154604468846304600211F4616
:102CE000FFF794FF05F01F0148EA0101204602F0BA
:102CF0005FF83946204602F05BF830460121BDE816
:102D0000F041FFF783BF0000F8B50B4C237801F0CA
:102D100060059D4207460E460CD003231F22A021CA
:102D2000FFF7D4FFC6F341131F2280213846FFF777
:102D3000CDFF2570F8BD00BFA601002038B50D46B7
:102D40000446FFF7E1FF2A4620460021BDE838404F
:102D5000FFF79ABF70B50D4616460446FFF7D4FF3D
:102D600033462A4620464021BDE87040FFF7AEBFFB
:102D700001F007027521FFF7EDBF70B50C4616464E
:102D80000546FFF7C1FFF3B2224628464021FFF770
:102D90009DFF621C330A2846D2B24021BDE8704034
:102DA000FFF794BF054B1A8812B1013A92B201E0C5
:102DB00040F2FF720C21FFF7E0BF00BF3A0E002087
:102DC000F8B5FF2B0646BDF818701046BDF81C205C
:102DD00014D00F4C062505FB03452D887B190624CE
:102DE00061430B4C615A9BB2084480B21946FFF70D
:102DF00033FA3046BDE8F840FFF7D4BF054D2C88C4
:102E0000E319B3F5006FE8DBA4F2FF743B19E6E7C2
:102E10003C0E0020340E0020FFF7C4BFFF2970B520
:102E200015461E460FD00D4B062404FB01342288A4
:102E30002A4492B20021FFF7A0FF63885D1BAE42D7
:102E40000ADDAEB208E0064C22885319B3F5006FD4
:102E5000EDDBA2F2FF72EBE7304670BD3C0E0020C6
:102E6000340E002038B5044615460A46D421FFF733
:102E700071FF2A46D6212046FFF77FFFEA21204630
:102E8000FFF75CFFC30703D50F2002F097FAF5E7C1
:102E900038BD00002DE9F04139210446FFF74EFF0F
:102EA000002847D0244E328840F2F9739A42C8BFB6
:102EB0006FF4FF634FF000012046CCBFD518951D7D
:102EC000FFF75BFF00223A212046FFF7DDFE0022DC
:102ED00030803A212046FFF7D7FE338843EA0020AE
:102EE000308000223A212046FFF7CEFE00223A2110
:102EF00006462046FFF7C8FE00223A210746204634
:102F0000FFF7C2FE402380461E2280212046FFF7A5
:102F1000DDFE18F0800FADB208D0084B46EA072658
:102F2000043E1D805E80FF20BDE8F0812046FFF753
:102F300039FF0020BDE8F0813A0E0020340E002059
:102F400070B504460D4600F0E3F900222046082142
:102F500001F0FEFE4C49204601F014FF4FF07E5078
:102F600002F038FA04F178000121FFF74FFEFF2349
:102F7000194600222046FFF7A9FE322002F038FA57
:102F80000026424B3246204608211E80FFF7F5FE00
:102F9000324620460C21FFF7F0FE204640F2FF7239
:102FA0000A21FFF7EAFE2046B1223821FFF7D2FEC0
:102FB000204643F23F022821FFF7DFFE20464FF272
:102FC000F9723021FFF7D9FE20460D22C021FFF70C
:102FD000D4FE32232046C2228021FFF777FE20460E
:102FE00040F61242C621FFF7C8FE20461222C42135
:102FF000FFF7B0FE204640F2DC52CA21FFF7BDFECB
:103000002A782046E421FFF7A5FE6A782046E521CC
:10301000FFF7A0FEAA782046E221FFF79BFEEA78A0
:103020002046E321FFF796FE2A792046E021FFF7AC
:1030300091FE6A792046E121FFF78CFE4FF4807201
:1030400020461021FFF70EFF20461F21FFF75CFEF0
:103050002046C0231B228021FFF738FE1F220423B5
:1030600020468021FFF732FE02212046FFF780FE36
:103070003C2002F0A3F9204640F276421421BDE83C
:103080007040FFF7EFBE00BF40420F003A0E002035
:1030900038B504460A4604F178050021FFF76DFEB5
:1030A00028460021FFF7B2FD3A21204601F080FEBC
:1030B0000021204601F07CFE012104462846FFF74E
:1030C000A5FDE0B238BD70B50446164604F178059A
:1030D0000A460221FFF751FE28460021FFF796FD20
:1030E0007A21204601F064FE3146204601F060FE60
:1030F00028460121BDE87040FFF788BDF8B50623DA
:103100001C4A59435318545A5E88013CA4B22146C4
:103110000546FFF7BDFF2644B6B2074620B10022A0
:1031200021462846FFF7CFFF224604212846FFF715
:1031300024FE324606212846FFF71FFE08231F22E1
:1031400080212846FFF7C2FD1C212846FFF7F6FD27
:10315000830705D508231F22A0212846FFF7B6FDC7
:1031600037B13A4621462846BDE8F840FFF7ABBFE5
:10317000F8BD00BF3C0E00202DE9F84300F17806B1
:1031800005460F46304600219046FFF73FFD3A21A5
:10319000284601F00DFEC1463C4644B100212846B8
:1031A00001F006FE013CA4B209F8010BF5E708F8AE
:1031B000074030460121BDE8F843FFF727BD70B551
:1031C0001E46BDF810300546FFF728FE324604467D
:1031D00001462846FFF7D0FF204670BDF8B500F144
:1031E000780605460C46304600211746FFF70EFDCF
:1031F0007A21284601F0DCFD24B1013CA4B217F885
:10320000011BF6E730460121BDE8F840FFF7FEBCA0
:103210002DE9F041154606221F4651430C4BBDF8DF
:1032200018405A5A03EB01082A4492B2022106467A
:10323000FFF7A3FDB8F80220521B9442C8BF94B216
:1032400030463A462146FFF7C9FF2046BDE8F081E7
:103250003C0E00202DE9F8430C4611461A46BDF8F5
:1032600020300646FFF7DAFD06F178080138002124
:1032700087B24046FFF7CAFC3A21304601F098FD7C
:103280004FF00009B94518D20021304601F090FDF9
:10329000C0B205020021304601F08AFD55FA80F0E7
:1032A00080B20444A4B2A04288BF013409F10209EB
:1032B00088BFA4B21FFA89F9E4E70BD10021304698
:1032C00001F076FDC0B200020444A4B2A04284BF63
:1032D0000134A4B240460121FFF798FC2046BDE826
:1032E000F88310B504220446002103F079FB204640
:1032F00010BD10B583709DF8083001704270C37026
:1033000010BD10B50422044603F06CFA204610BD2F
:1033100010B5074C4FF49F720021204603F060FB6C
:1033200040F60103238000232371638010BD00BF9A
:103330003C0E0020354A2DE9F843138803F5BF53AE
:103340001F33002705464FF4C05C98B23C46164632
:103350004FF0060E117919B10EFB01F3F35A00E09C
:103360000346B2F800805288C8EB03039B1A9BB255
:10337000AB4203D1062404FB076431E004D99C4529
:1033800084BF0EFB07649C4621B94CBB1F4C4FF019
:10339000060915E00EFB01620F46DBE7278863880C
:1033A00009FB02F81F4436F80810BFB28F4206EB43
:1033B000080405D062883846FEF74EFF26F80870EC
:1033C0002279002AEAD13388228803F5BF531F33BC
:1033D0009B1A62889B1AAB4202DA0020BDE8F88390
:1033E0000B4B01205A8832B10130C0B2352803F1AD
:1033F0000603F7D1F1E7218862885D800A441A80CC
:1034000022791A712071BDE8F88300BF3C0E0020BC
:10341000420E002010B590B1094B062419461A79C6
:10342000904208D1062202FB001002791A71002393
:103430004380037110BD12B104FB0213EFE710BD0E
:103440003C0E002010B50623044A58431418135AA2
:103450000B4413526388591A618010BD3C0E002042
:1034600030B50623034C58432518235A6A80194463
:10347000215230BD3C0E00200A4B4FF47A721B687B
:10348000B3FBF2F3013BB3F1807F09D2064A5360EC
:10349000064BF02183F82310002393600723136069
:1034A000704700BFAC01002010E000E000ED00E03C
:1034B000024A136801331360704700BF7C0F00207D
:1034C000014B1868704700BF7C0F002010B50C4CF2
:1034D000A268A468B4F1006F13460CD1131F094A07
:1034E00053F8044F42F8044F074CA242F8D1044A63
:1034F0004FF000539360103043F8201010BD00BF10
:1035000000ED00E0FCFFFF1F9001002038B5144BD8
:103510001A68116911F0020F1C4607D0D36898078A
:1035200004D56FF00203136101F042FF23681A69AA
:10353000510714D5DA68520711D56FF00402094D0E
:103540001A615C6A2B68E31AB3F57A7F07D300F03F
:10355000E7FA034B2C601B6804F57A729A6338BD56
:1035600014150020800F002037B5234B234C002575
:1035700001951A6C42F008021A641A6C02F00802F3
:103580000192019A1A6A42F008021A621A6A22F03B
:1035900008021A6201F05AF8194B23604FF0FF330A
:1035A000E360184B184A1B68B3FBF2F32046013B5B
:1035B00063602561A560656100F0C0FE322013499B
:1035C000FFF784FF124B4FF480225A6029462046B1
:1035D00000F0DAFE2046042100F0D6FE23680D49F3
:1035E0005A6A0A6002F57A729A63DA68284642F0EB
:1035F0000402DA6003B030BD003802401415002028
:10360000000C0040AC01002040420F000D350008C6
:1036100000E100E0800F00201FB501F035FE684694
:10362000052101F026FEBDF90030013304D10E481A
:103630000E49342201F0D2FD039B019A1A609620B4
:1036400001F0D6FEBDF90030013304D10648074928
:10365000342201F0C3FD019B039A1B0413609620E2
:1036600001F0C6FEDFE700BFB50B0108CD0B010876
:1036700030B50546A1B00C4601F006FE2946684665
:10368000224607F051FD051E03DC01F027FE21B0A4
:1036900030BD094B1B6823B908480221032201F001
:1036A00051F900241DF804100448013401F044FAD3
:1036B000AC42F7D1E9E700BF941200205415002076
:1036C0000FB407B504A951F8040B0191FFF7D0FF1F
:1036D00003B05DF804EB04B0704708B500F0B6FF26
:1036E000BDE8084000F002BA70477047036870B543
:1036F00004465B6A9847236820461B690021012223
:103700009847431C0646236804D120469B6A984785
:10371000304670BD1B69204600210222984723686D
:103720000546314600221B692046984723682046FB
:103730009B6A9847284670BD08B5084B1B685BB963
:1037400007480221032201F0FDF805484FF4165105
:10375000BDE8084001F0A0B908BD00BF94120020E8
:103760005415002002284FF0000309DDC21E07494E
:1037700051F8220041F8223020B103685B681847F5
:10378000184670474FF0FF30704700BF900F002081
:10379000022870B50C4615460FDC0E4B1B680BB9A2
:1037A000FFF7CAFF6619B44205D00B4814F8011B95
:1037B00001F0C2F9F7E7284670BD0338074B53F80C
:1037C000200020B10368BDE870401B6818474FF027
:1037D000FF3070BD9412002054150020900F00207F
:1037E000022810B50C460ADC0B4B1B680BB9FFF71F
:1037F000A3FF0A4801F084F92070012010BD0338AE
:10380000074B53F8200020B10368BDE810409B68C7
:1038100018474FF0FF3010BD9412002054150020BF
:10382000900F0020022807DD0338064B53F82000D4
:1038300020B10368DB681847012070474FF0FF3064
:10384000704700BF900F0020022807DD0338064BA9
:1038500053F8200020B103681B6918470020704707
:103860004FF0FF30704700BF900F0020022808B5CE
:1038700004D84FF400534B60002008BD02F0D8F884
:10388000092303604FF0FF3008BD08B5012002F0A6
:10389000D5F8704708B5FFF7FCFF08BD704708B5BD
:1038A000FFF71BFFFFF7FAFFBDE80840FDF7BEBDBD
:1038B0000C4A136810B51844EFF30881884205D309
:1038C000094B0C221A604FF0FF3010BD0749096800
:1038D00021B1074C246821448842F1D21060184677
:1038E00010BD00BFA8010020A01500208C0F0020F3
:1038F00090100020074C08B523680546986802F030
:10390000B1F92368D86802F0ADF90DB1FFF784FE74
:10391000FEE700BFD8050020002103F079B9704709
:10392000704708B5FFF7FBFF08BD08B5FFF7F8FFC4
:1039300008BD08B102F0C6BE70470000034610B5CE
:1039400053F8042B044602B9036022689A4204D05B
:1039500003480449562201F041FC206810BD00BF15
:103960003C0D0108500D01080B4B10B503600446D7
:103970000A48FFF7E3FF0023094A52F82310A14247
:1039800004BF002142F823100133402BF4D1034837
:10399000FFF7D4FF204610BDB00D0108840F0020B2
:1039A000900F00202DE9F34188463649054603F083
:1039B0007BFA044610B9FFF7BFFE5EE028463249A5
:1039C00003F072FA18B9FFF7B7FE012455E0284654
:1039D0002E4903F069FA18B9FFF7AEFE02244CE055
:1039E0002B48FFF7ABFF00242A4E56F82430374609
:1039F00033B10134402CF7D12548FFF79FFF3AE05F
:103A00004FF0FF33224846F82430FFF797FF2B781A
:103A10003A2B06D1284620496A4603F0CFF9009890
:103A200024E06846294601F0D5F8684601F014F90B
:103A300010B946F824001EE0684601F0FBF818B102
:103A4000684601F000F911E0684601F0ECF805461F
:103A500010B946F824000EE0036868469E6801F03D
:103A6000D7F828F4803201462846B04747F82400AA
:103A700008B1033401E04FF0FF34204602B0BDE846
:103A8000F08100BF400C0108990D0108470C0108A6
:103A9000840F0020900F0020950D0108DFF830D032
:103AA000002103E00B4B5B58435004310A480B4B99
:103AB00042189A42F6D30A4A02E0002342F8043B35
:103AC000084B9A42F9D300F09BFEFCF791FB70473C
:103AD000008001203019010898010020880B002087
:103AE000880B0020A4150020FEE7000008B50B4B52
:103AF0001A6842F400721A601A6842F480621A600E
:103B00001A6842F480721A60032000F017F80F2040
:103B1000FFF72AFD00F024F8002008BD003C024019
:103B2000024A136801331360704700BF501500202C
:103B3000014B1868704700BF50150020074AD36832
:103B400023F4E0631B041B0C43F0BF6343F4003316
:103B500000F0070043EA0023D360704700ED00E067
:103B6000704700002DE9F3410F68002201239340C4
:103B700003EA07059D4240F0B9804C6824F0100C20
:103B8000BCF1020F14D14FEAD20E00EB8E0E02F000
:103B90000706DEF82030B6004FF00F0808FA06F8E6
:103BA00023EA08080B69B34048EA0303CEF8203043
:103BB0004FEA420E0323066803FA0EF3DB4303EADF
:103BC000060804F0030606FA0EF60CF1FF3C48EA7C
:103BD0000606BCF1010F066011D8866803EA060CE0
:103BE000CE6806FA0EF64CEA06068660466826EAB5
:103BF000050CC4F3001696404CEA06064660C668FB
:103C000003EA060C8B6803FA0EF64CEA0603C3605F
:103C1000E3006BD5394E00230193D6F844E04EF40F
:103C2000804EC6F844E0766C06F480460196019E0C
:103C300022F0030606F1804606F59C3602F0030CDE
:103C4000D6F808804FEA8C0C4FF00F0E0EFA0CFEDF
:103C500028EA0E0EDFF8AC80404519D003F180430E
:103C600003F5013398420ED003F5806398420CD0DF
:103C700003F5806398420AD003F5806398420CBF35
:103C80000423052304E0012302E0022300E00323D0
:103C900003FA0CF343EA0E03DFF864E0B360DEF8E6
:103CA0000030EE4314F4803F14BF2B433340CEF872
:103CB0000030DEF80430DFF848E014F4003F14BFB1
:103CC0002B433340CEF80430DEF8083014F4801F64
:103CD00014BF2B433340CEF80830DEF80C30A4027A
:103CE00054BF06EA03051D43054BDD600132102A6F
:103CF0007FF43CAF02B0BDE8F08100BF0038024065
:103D0000003C0140000002400368F7B5D9070446B3
:103D100003D423689A0737D484E0A54B9A6802F04D
:103D20000C02042A07D09A6802F00C02082A0BD170
:103D30005B685B0208D59E4B1B689F03E9D56368EF
:103D4000002BE6D1012030E19A4B22791A7063688A
:103D50006BB1FFF7EDFE0546954B1B689E03D8D46B
:103D6000FFF7E6FE401BC828F6D903201DE1FFF748
:103D7000DFFE05468E4B1B689803CAD5FFF7D8FEB9
:103D8000401BC828F6D9F0E7894B9A6812F00C0F4F
:103D900007D09A6802F00C02082A16D15B68590213
:103DA00013D4834B1A68920702D5E268012AC9D15D
:103DB0001968F82090FAA0F02269B0FA80F021F09A
:103DC000F80182400A431A602CE0E2687A4BDAB1CB
:103DD00001221A60FFF7ACFE0546754803689F078D
:103DE00005D4FFF7A5FE401B0228F6D9BDE70268FF
:103DF000F82191FAA1F12369B1FA81F122F0F802D8
:103E00008B40134303600DE01A60FFF791FE0546F7
:103E1000674B1B689E0705D5FFF78AFE401B0228EB
:103E2000F6D9A2E72368180703D42368590744D5B5
:103E30001FE06269614B72B101221A60FFF778FEE0
:103E400005465B4B5B6F9A07EFD4FFF771FE401B93
:103E50000228F6D989E71A60FFF76AFE0546544B37
:103E60005B6F9B07E1D5FFF763FE401B0228F6D985
:103E70007BE7002301934E4B1A6C42F080521A6488
:103E80001B6C4F4A03F080530193019B136843F46A
:103E900080731360FFF74CFE0546494B1B68DF0536
:103EA0000ED5484B227A1A70A368BBB1FFF740FECB
:103EB00005463F4B1B6F9E0708D5A269EAB959E03A
:103EC000FFF736FE401B0228E7D94EE7FFF730FE2A
:103ED00041F28833401B9842EBD946E7FFF728FEB2
:103EE0000546334B1B6F9807E7D5FFF721FE41F2DC
:103EF0008833401B9842F4D937E72D4B9B6803F079
:103F00000C03082B3FF41EAF2F4D0023022A2B6019
:103F10003ED1FFF70DFE06462548036899012BD4D4
:103F200047F6C07797FAA7F74FF44036B7FA87F706
:103F300096FAA6F64FF07061B6FA86F691FAA1F1FC
:103F4000E369226AB1FA81F11A43636ABB401A43FA
:103F5000A36A5B08013BB3401343E26A8A40134300
:103F6000436001232B60FFF7E3FD0446104B1B6801
:103F70009A0107D5002018E0FFF7DAFD801B022820
:103F8000CAD9F2E6FFF7D4FD001B0228EED9ECE611
:103F9000FFF7CEFD0446064B1B689B01EAD5FFF7F1
:103FA000C7FD001B0228F6D9DFE603B0F0BD00BF55
:103FB000003802400238024000004742800E47426B
:103FC00000700040703802406000474210B51C4C41
:103FD000A36803F00C03042B2ED0082B2ED16268AB
:103FE00002F03F03626847F6C07112F4800F626806
:103FF00091FAA1F147F6C07000EA020008BF114A29
:10400000B1FA81F120FA01F00EBFB2FBF3F20E49D2
:10401000B1FBF3F202FB00F3094A50684FF440325F
:1040200092FAA2F200F44030B2FA82F2D0400130AB
:104030004000B3FBF0F010BD034810BD014810BDB7
:10404000003802400024F40000127A00584B1A682D
:1040500002F00F02914270B504460D460AD821685D
:10406000880710D55348836823F0F002A3681343F0
:10407000836008E0CAB21A701B6803F00F038B421A
:10408000EDD0012070BDC90706D4494B1A6802F073
:104090000F0295425AD360E06368464A012B03D170
:1040A000126812F4003F08E0991E0129126802D834
:1040B00012F0007F01E012F0020FE2D03D498A6861
:1040C00022F0030213438B60FFF732FD6368012B7C
:1040D00006460ED1374B9B6803F00C03042BD4D05B
:1040E000FFF726FD41F28833801B9842F2D9032066
:1040F00070BD022B0DD12F4B9B6803F00C03082BD6
:10410000C3D0FFF715FD41F28833801B9842F2D9E6
:10411000EDE7032B14D1274B9B6803F00C030C2B0A
:10412000B3D0FFF705FD41F28833801B9842F2D9E6
:10413000DDE7FFF7FDFC41F28833801B9842D6D8BB
:104140001C4B9B6813F00C0FF3D19EE7EAB21A7078
:104150001B6803F00F03AB4293D121684A0706D5D1
:104160001448836823F4E052E368134383600B0729
:1041700041BF104A2169936823F4604344BF43EA76
:10418000C1039360FFF722FF0A4BF0229B6892FA6B
:10419000A2F203F0F003B2FA82F2D340064AD35CF3
:1041A000D840064B18600F20FFF7DEF9002070BDE5
:1041B000003C024000380240DC0D0108AC01002048
:1041C000084B4FF4E0529B6892FAA2F203F4E053DA
:1041D000B2FA82F2D340044AD35C044A1068D84051
:1041E000704700BF00380240DC0D0108AC01002020
:1041F000084B4FF460429B6892FAA2F203F46043CA
:10420000B2FA82F2D340044AD35C044A1068D84020
:10421000704700BF00380240DC0D0108AC010020EF
:10422000704738B50446002839D090F8513003F073
:10423000FF021BB980F85020FFF7F2FF6168A06809
:10424000A56A0843E16808432169022384F85130D4
:104250000843236861691A680843E16922F0400253
:104260000843216A1A60A2690143294302F40070DD
:1042700001431960120C616A02F004020A43B5F5A9
:10428000005F5A6004BFE26A1A61DA6922F40062D0
:10429000DA6100200123606584F8513038BD0120C7
:1042A00038BD7047224A036890420ED0B0F1804F6B
:1042B0000BD0A2F57C42904207D002F5806290427A
:1042C00003D002F58062904214D14A6823F0700353
:1042D0001343174A904225D0B0F1804F22D0154A9F
:1042E00090421FD002F5806290421BD002F580629E
:1042F000904217D0104A904214D002F5806290424A
:1043000010D002F5806290420CD003608B68C362CB
:104310000B688362064B984204BF0B690363012359
:1043200043617047CA6823F440731343EDE700BF4D
:1043300000000140000400400040014010B5044668
:10434000A0B190F8393003F0FF021BB980F8382093
:10435000FFF7A7FF022384F839302068211DFFF7FB
:10436000A1FF012384F83930002010BD012010BDC9
:1043700010B50123046A8B4024EA03030362036A35
:104380008A401343036210BD10B504460122006841
:10439000FFF7EEFF2368064A934202BF5A6C42F4CD
:1043A00000425A641A6842F001021A60002010BDEF
:1043B000000001402DE9F04706683369044623F404
:1043C0004052C3682169C0691343A2683361F3682E
:1043D0001143626923F416430A43024323F00C039A
:1043E0001343F360736923F44072A369B0F5004F7F
:1043F00043EA020373617B4B7CD19E4203D003F5F9
:1044000080639E4231D1FFF7F3FE636819254FEABE
:1044100043086843B0FBF8F8FFF7EAFE67686843B3
:104420007F00B0FBF7F7FFF7E3FE63684FF0640926
:104430005B006843B0FBF3F0B0FBF9F009FB1077C9
:10444000FFF7D6FEB8FBF9F86268FF003237B7FB1A
:10445000F9F707F0F807684352004FEA08187F00A1
:10446000B0FBF2FAFFF7C4FE30E0FFF7A9FE636885
:1044700019254FEA43086843B0FBF8F8FFF7A0FEA0
:10448000676868437F00B0FBF7F7FFF799FE636842
:104490004FF064095B006843B0FBF3F0B0FBF9F048
:1044A00009FB1077FFF78CFEB8FBF9F8FF00626894
:1044B0003237B7FBF9F707F0F807684352004FEAC5
:1044C00008187F00B0FBF2FAFFF77AFE45436068F8
:1044D0004000B5FBF0F0B0FBF9F009FB10A2D200F0
:1044E0003232B2FBF9F303F0070343441F44B760D1
:1044F000BDE8F0879E4202D03B4B9E422ED1FFF793
:1045000077FE676819256843BF00B0FBF7F7FFF730
:104510006FFE636868439B00B0FBF3F8FFF768FE2B
:1045200063684FF0640968439B00B0FBF3F0B0FB95
:10453000F9F009FB10831B013233B3FBF9F303F0ED
:10454000F008FFF755FEB7FBF9F762686843920081
:104550003F01B0FBF2FAFFF74BFE2DE0FFF730FE14
:10456000676819256843BF00B0FBF7F7FFF728FE1F
:10457000636868439B00B0FBF3F8FFF721FE6368B4
:104580004FF064099B006843B0FBF3F0B0FBF9F017
:1045900009FB10831B013233B3FBF9F303F0F0087E
:1045A000FFF70EFEB7FBF9F76268684392003F0120
:1045B000B0FBF2FAFFF704FE454360688000B5FBEC
:1045C000F0F0B0FBF9F009FB10A212013232B2FB9D
:1045D000F9F202F00F0208EB02033B44B360BDE8BE
:1045E000F08700BF0010014000140140704710B573
:1045F000044640B390F8393003F0FF021BB980F84D
:104600003820FFF7F3FF2268242384F83930D36879
:1046100023F40053D3602046FFF7CCFE23681A69C9
:1046200022F490421A615A6922F02A025A61DA6829
:1046300042F40052DA6000202023E06384F839302D
:1046400084F83A3010BD012010BD0000174A184907
:10465000936803F00C03042B03D0082B03D0154BF5
:1046600018E0154B16E05068536810F4800F03F003
:104670003F03506814BF104A0E4AB2FBF3F30B4AD3
:104680005268C2F30142C0F3881001324343520022
:10469000B3FBF2F30B60054B084A9B68C3F30313AB
:1046A000D25C0B68D3400B60704700BF00380240FB
:1046B000AC0100200024F40000127A00EC0D010887
:1046C00010B594B0214B002101911A6C42F0805238
:1046D0001A641B6C1E4A03F080530193019B0291E4
:1046E000136823F4404343F400431360136803F456
:1046F00040430293029B0123089300B105230993D1
:104700004FF480030F93082310934FF4A873119371
:1047100004230224129308A807230E941393FFF78F
:10472000F3FA78B90F23039305904FF48053079061
:10473000214603A804940693FFF788FCB0FA80F0A2
:10474000400900E0002014B010BD00BF0038024056
:104750000070004030B595B00024204B01941A6CD5
:1047600042F080521A641B6C1D4A03F0805301937F
:10477000019B0294136823F4404343F40043136005
:104780001368099403F440430293029B0F9403239C
:10479000089301230B9310230C9310934FF4A873E9
:1047A000119304230225129308A807230E9513934F
:1047B000FFF7AAFA78B90F23039305904FF48053BB
:1047C0000790294603A804950693FFF73FFCB0FA2B
:1047D00080F0400900E0204615B030BD00380240AE
:1047E0000070004008B50120FFF76AFF30B9FFF7FD
:1047F00067FF18B9FFF7AEFF00B9FEE708BD00007C
:10480000174AD2F8883010B543F47003154CC2F83B
:1048100088302368002143F001032360A1602368EE
:1048200023F0847323F4803323600F4B6360236889
:1048300023F4802323604FF00063E16093600B4B0F
:104840000B4A1A60FFF752F9FFF7CCFF236A43F0D7
:1048500008032362236A23F00803236210BD00BF0C
:1048600000ED00E00038024010300024AC010020D0
:104870000024F40070B505460E4629720024012379
:104880006A68A340134209D02878012E04EB001077
:1048900000B20CBF3146002100F06AFE0134102C3A
:1048A000EDD170BDF8B5044608461D460E461746C4
:1048B00000F0EEFD00F110031430206126706760F7
:1048C0002572E36020462946BDE8F840FFF7D2BFD5
:1048D00042681A490346920110B5006888508C1846
:1048E0009A6862602246D96842F8081F19695160C7
:1048F0005969916004F110011A6A8A600022E2612C
:10490000E284A284E285A285B3F91A20013201D1A2
:10491000082305E0B3F9183001330CBF04230C233E
:104920004B60FFF793FE2046FFF761FE20B104487D
:10493000BDE8104000F064BC10BD00BF9410002022
:10494000FC0D0108F0B5044685B008460E464949FD
:10495000154600F01DFD48490746284600F018FDA1
:104960000146384600F0F6FC2060013004D143488F
:1049700043496A2200F032FC2368424A93421DD028
:1049800002F5806293422FD0A2F55042934241D16A
:104990003D4B1A6A42F400321A621A6A22F400325B
:1049A0001A62002202921A6C42F400321A641B6CE2
:1049B00003F400330293029B01232AE0324B5A6A2C
:1049C00042F010025A625A6A002122F010025A6222
:1049D00001915A6C42F010025A645B6C616003F002
:1049E00010030193019B15E0274B5A6A42F0200205
:1049F0005A625A6A22F020025A62002203925A6CCA
:104A000042F020025A645B6C03F020030393039B83
:104A1000052363603046174900F07EFC284616499E
:104A200000F07AFC721C03D03046012100F0CEFD6C
:104A30006B1C03D02846012100F0C8FD4FF416532B
:104A4000A3600023E360236163612362268365839F
:104A50002046FFF73DFF22680C4B9A4207D10C4BD2
:104A60000C4801221A6021464C2201F0BBFE05B021
:104A7000F0BD00BF4C120108BC110108140E010862
:104A8000300E010800100140003802400044004090
:104A900094120020541500208160FFF719BF0929E6
:104AA0000CBF4FF480510021012AC16004D0022ABA
:104AB00005D14FF4806203E04FF4C06200E00022B1
:104AC000022B0CBF4FF40053002342610361FFF738
:104AD000FFBE0000034B19604168034B43F82120DF
:104AE000704700BFB8120020981200204368034AA4
:104AF0009B01D3581868C0F34010704794100020F1
:104B000038B5446805462846FFF7F0FF0028FAD07C
:104B1000A401034B1B595868C0F3080038BD00BFFF
:104B2000941000204368034A9B01D3581868C0F3CF
:104B3000C01070479410002070B5456806460C46BA
:104B40003046FFF7EFFF0028FAD0AD01024B5B596A
:104B5000C4F308045C6070BD94100020054B186815
:104B600030B901221A60044B044A1A60FEF7FCBCFB
:104B7000704700BFF8120020BC120020000C00405B
:104B800008B5044B1B680BB9FFF7E8FF024B586AE6
:104B900008BD00BFF8120020000C0040034B1B684A
:104BA0005863DA6842F00202DA607047BC120020F3
:104BB000034B1A68D36823F00203D360704700BF29
:104BC000BC120020024B1B686FF002021A61704792
:104BD000BC12002010B50023036043600A782F2A1E
:104BE000044613D14A788AB1481C206019462368CC
:104BF0001A782F2A02D10133236004E01AB101335D
:104C000001312360F3E700F09DFE6060204610BD97
:104C100000687047406808B520B100F047FE431EA9
:104C20005842584108BD10B50446FFF7F3FF00B1E4
:104C3000606810BD406808B520B100F037FEB0FADA
:104C400080F0400908BD10B50446FFF7F3FF10B12E
:104C5000606800B1043810BD4068003018BF012002
:104C600070470B68104618477047A0F1BC00FFF76B
:104C7000FBBF7047A0F1BC00FFF7FBBF00F033BAE9
:104C8000A0F1BC00FFF7FABF00F030BAA0F1BC0001
:104C9000FFF7FABF38B504461D4600F02FFA04F1BD
:104CA000BC00294600F07AF9064B03F108022260A5
:104CB00003F128026433C4F8BC20C4F8C030204695
:104CC00038BD00BF080F0108704710B580B11468E7
:104CD00053680CB9DA070BD513F0010F4FEA6303E1
:104CE0001CBFC258145918442346BDE81040184749
:104CF00010BD28B100F15803834201D02C3BFBE7E3
:104D0000704710B50446FEF714FE204610BD0000A3
:104D1000036870B50D4D5B68044698472B68A34245
:104D20000ED0261D3046D4F8CC10D4F8D020002365
:104D300000F048FD3046D4F8D41000F06DFD2C6032
:104D4000236820469B68BDE870401847FC1200208D
:104D5000036870B55B6804460E4615469847084BD5
:104D6000C4F8CC602046C4F8D05000221A60FFF787
:104D7000CFFF236820469B68BDE87040184700BFFE
:104D8000FC120020036870B55B6804460D46984726
:104D9000064BC4F8D450204600221A60FFF7B8FF33
:104DA000236820469B68BDE870401847FC1200202D
:104DB00038B5036804465B680D4698472046FFF700
:104DC000A7FF2946201D00F065FD236805469B6866
:104DD00020469847284638BD13B502AB042243F855
:104DE000041D1946044601F0FDFC019B002B034BFA
:104DF00008BF0023E36002B010BD00BF634C000891
:104E00002DE9F04306461F46244B46F8043B85B087
:104E1000044600258946904630460021902201F044
:104E2000DFFD04AB0295039513E9030004F198023A
:104E30001B4B82E80300C4F8A03048F20703C4F813
:104E4000A430184BC4F8AC50C4F8A840C4F8B02043
:104E5000C4F8B430BFF36F8FBFF34F8F04F1B800C5
:104E60002946FFF7B9FF0823C4F8CC300E4BC4F82D
:104E7000D430BDF9303000933046494642463B4677
:104E800084F8C850C4F8D05000F0DAFB2046FFF791
:104E90003FFF204605B0BDE8F08300BF800F01084A
:104EA00001A090E8CB4C000840420F0038B5002527
:104EB00004462946282240F8045B01F091FD04F1E4
:104EC00018002946FFF788FF204638BD08B502487C
:104ED000FEF734FD08BD00BF0013002008B50248EE
:104EE000FEF72CFD08BD00BF0013002010B50A4CD2
:104EF0002046FFF7DBFF04F12C00FFF7D7FF00236C
:104F0000A3652046E365054984F86030044ABDE89E
:104F1000104000F081BD00BF08130020F34C0008D2
:104F20009801002000207047F8B503685B6A0E46C0
:104F300004468F1898473546BD4208D0236815F8B7
:104F4000011BDB6A204698470130F5D12F462368C4
:104F500020469B6A9847B81BF8BDF8B503685B6AA2
:104F60000E4604468F1898473546BD4208D0236840
:104F700020461B6B9847431C02D005F8010BF4E751
:104F8000236820469B6A9847A81BF8BD00207047FD
:104F90000020704700207047002070471FB504466E
:104FA00000F0F0FC0B4B0C4903F108024433636042
:104FB00000236361226001A8224601F0D9FE07495F
:104FC00001A800F08BFF6061FEF7A6FC204604B04C
:104FD00010BD00BF980F0108950D0108E40F0108EE
:104FE00010B5074B03F108024433044602604360E6
:104FF000406900F075FD204600F0D8FC204610BD49
:10500000980F01080EB477B5036807AD044655F84C
:10501000046B5B6A98476069019500F023FE314696
:10502000019A606906F024F8236805469B6A2046C9
:105030009847284603B0BDE8704003B070477047FA
:1050400070477047090102460844D0F8A43023B1E4
:105050009831D0F8A00011441847704710B580B1BE
:10506000146853680CB9DA070BD513F0010F4FEA37
:1050700063031CBFC258145918442346BDE81040AE
:10508000184710BD10B50446FEF753FC204610BD6E
:1050900070B50546044655F84C3B0E461B689847CC
:1050A00028463146FFF7F8FC2368C4F8B86020466C
:1050B0005B68BDE8704018472DE9F04105461E4683
:1050C00055F84C3B0446884617461B6898472846C7
:1050D000334641463A46FFF7E2FC236820465B68C8
:1050E000BDE8F04118474C30FFF70ABD10B54C3011
:1050F0000C46FFF721FD204610BD00002DE9FF47BB
:10510000034600259146304A43F8082B0295039543
:1051100004AA04468A4612E9030083E803002B4BE5
:10512000236148F20703636104F10803E561A461A8
:105130002362274B6362BFF36F8FBFF34F8F04F17E
:1051400028002946FFF748FE04F14C0804AF04F19B
:1051500038002946FFF740FE294684F8485084F875
:10516000495040464C2201F03BFC47F80C5D04F1ED
:1051700098003946042201F035FB019B154E01953C
:10518000AB4214BF33462B46C4F8A430394604F171
:10519000A800042201F026FB019BAB4208BF2E466B
:1051A0004FF41653C4F8B830404651464A46C4F846
:1051B000B460FFF7C7FB404607492246FFF78AFC69
:1051C000204604B0BDE8F087F00F010801A090E888
:1051D0005D500008FD1400084550000870B50646F3
:1051E0000D46144600F050F831462A46234603483F
:1051F000FEF766FABDE87040FEF70EBA001001082F
:105200000FB407B504A951F8040B0191FEF730FA69
:10521000012000F013FC000038B5B0F90030013374
:1052200004460D4604D1054805493422FFF7D6FF50
:10523000E268636805B91B04136038BDB50B01084B
:10524000CD0B010870B50E460446154600F0ECF88B
:1052500001360DD020462946FFF7DEFF204601210A
:1052600000F0FCF820460021BDE8704000F0F1B8E5
:1052700070BD0022FFF7E6BFEFF3108000F00100E1
:1052800080F001007047000038B5FFF7F5FF80F0AF
:105290000100C5B272B60C4C23680BB90B4B1D70E4
:1052A0002368013304D10A480A493222FFF796FFE6
:1052B00023682BB125B9084806493622FFF78EFF2F
:1052C00023680133236038BD6C1300207013002065
:1052D00031100108571001089C10010810B50A4C44
:1052E000236883B1FFF7C8FF20B108480849472267
:1052F000FFF774FF2368013B236023681BB9054B4C
:105300001B7803B962B610BD6C1300209C10010815
:10531000571001087013002010B50446013001D168
:1053200010BD0C31B1F900305A1C0BD0A342F8D19A
:105330002046896800F01CF920460021BDE8104095
:1053400000F044B90248BDE81040FFF759BF00BF64
:10535000B0100108884208B50AD0431C07D00131BB
:1053600006D00448FFF74CFF4FF0FF3008BD084659
:1053700008BD00BFC1100108B1F900305A1C05D0AA
:10538000834201D1486870470C31F5E718467047F1
:10539000421C10B5044607D0FFF7EEFF431C04463D
:1053A00002D10248FFF72CFF204610BDD2100108A1
:1053B000014800F00DBB00BF2411010838B50446B8
:1053C000FFF7DEFB0546FFF7DBFB401BA042FAD3ED
:1053D00038BD000007EE100ADFED047A67EE277A89
:1053E000FDEEE77A17EE900AFFF7E8BF0024744954
:1053F0004FF47A735843FFF7E1BF0000431C10B528
:10540000044604D1064807492722FFF7E7FE204655
:10541000002100F0ADF804F00F040120A04010BD01
:10542000BA0B0108D012010870B504464B1C0E4699
:1054300021800DD0C1F3031000F02AF80546304654
:10544000FFF7DCFF05F1100318356060A360E5602D
:1054500070BDB0F9000000F0B9B8000038B5B0F97F
:105460000030013305460C4604D10748074946225F
:10547000FFF7B4FE012CB5F900000CBF2146002156
:10548000BDE8384000F074B8B50B0108D01201082F
:105490007FB50023072853D8DFE800F004111E2B46
:1054A0003852524500932A4B2A481A6B42F00102A7
:1054B0001A631B6B03F001030093009B44E001930C
:1054C000234B25481A6B42F002021A631B6B03F050
:1054D00002030193019B37E002931D4B1F481A6B97
:1054E00042F004021A631B6B03F004030293029B55
:1054F0002AE00393164B1A481A6B42F008021A630B
:105500001B6B03F008030393039B1DE00493104BF4
:1055100014481A6B42F010021A631B6B03F010035D
:105520000493049B10E00593094B0F481A6B42F05B
:1055300080021A631B6B03F080030593059B03E055
:105540000A48FFF75DFE002007B05DF804FB00BFCE
:1055500000380240000002400004024000080240FF
:10556000000C024000100240001C02402F130108F2
:1055700030B5431C87B005460C4604D1104811498C
:105580008122FFF72BFEC5F30310FFF781FF05F023
:105590000F050123AB4004F00F0201930A4B53F8AF
:1055A00022300293C4F302130393C4F3C3140323FE
:1055B00001A904930594FEF7D5FA07B030BD00BFEA
:1055C000BA0B010850130108B0130108431C70B551
:1055D00006460C4604D10D480D49A622FFF7FEFDF4
:1055E000C6F30310FFF754FF06F00F05C1686B0008
:1055F00003229A4021EA0202032CC260C26828BF3B
:1056000000249C401443C46070BD00BFBA0B010865
:10561000501301080268136823F0400310B51360AB
:105620000446FEF7FEFD10B10448FFF7E9FD2268CD
:10563000136843F04003136010BD00BFF41301086A
:105640002DE9F04F87B004460F4608465249BDF990
:10565000405090461E46FFF79BFE50490190404641
:10566000FFF796FE4E4981463046FFF791FE4D49C1
:1056700083462846FFF78CFE019B49468246184622
:10568000FFF768FE514681465846FFF763FE014624
:105690004846FFF75FFEE065013004D142484349C8
:1056A0005F22FFF79BFD424BE26D9A424FF00003F1
:1056B0000CD102933F4B5A6C42F480525A645B6C9B
:1056C00003F480530293029B23232EE03A498A423B
:1056D0000CD10393374B1A6C42F480421A641B6C52
:1056E00003F480430393039B24231EE033498A423F
:1056F0000CD104932F4B1A6C42F400421A641B6CB9
:1057000003F400430493049B33230EE02C498A42A4
:105710000DD10593274B5A6C42F400525A645B6CCE
:1057200003F400530593059B542384F858303846FE
:105730001949FFF7F1FD40461849FFF7EDFD3046E6
:105740001749FFF7E9FD6B1CA4F86080A4F86270AC
:10575000A4F86460A4F8665004D028461149FFF705
:10576000DBFD02E04FF40073A361E36D23604FF4AF
:10577000827363603823E36107220023A3606361BF
:105780002361A362E262E360236263622046FFF763
:1057900041FF07B0BDE8F08F041201082C11010889
:1057A00074110108941201080A1401082514010853
:1057B000003001400038024000380040003C00400A
:1057C0000034014010290CBF4FF400610021012A70
:1057D000C16004D0022A05D03AB9026108E0002174
:1057E000016105E00261002202E002220261012261
:1057F00042618269B2F5007F05D0002B14BF002200
:105800004FF480228261002B14BF00234FF4827377
:105810004360FFF7FFBE000038B51A4AC36D9342DC
:1058200004460D4610D004DCA2F5806293420BD0F2
:105830000DE0154A934203D002F58062934206D1EF
:10584000FEF7D6FC00220DE0FEF7BAFCFAE70F489F
:10585000FFF7D6FC0020F5E70132092A06D0022323
:1058600090FBF3F0A842D3B2F6DC00E00823013B42
:10587000074A32F81330E3612046BDE83840FFF7AD
:10588000C9BE00BF003C0040003001408314010845
:10589000E4130108C36D026890688007FCD589B2E3
:1058A000D9609168C907FCD5D8687047007B7047FC
:1058B00038B504460A4B0360002343600D46A160DF
:1058C00002730848FEF73AF825B1074B1A68626080
:1058D0001C6000E065600348FEF730F8204638BDE4
:1058E000A0140108801300207C13002010B50D4B7C
:1058F000036004460C48FEF721F8A3686BB10B4A1D
:105900001368A34202D16368136006E05A68A2429A
:1059100001D01346FAE762685A600348FEF70EF8B2
:10592000204610BDA0140108801300207C13002025
:1059300010B50446FFF7DAFF2046FDF7FAFF2046D0
:1059400010BD000070B506460C480D46FDF7F6FF89
:105950000B4B1C686CB1A06848B131462A4601F077
:10596000DDFC20B9A06801F06BFCA84201D064689E
:10597000F0E70248FDF7E2FF204670BD80130020EB
:105980007C13002010B5074B0446002240F8043B6E
:10599000FFF78EFF044B03F108023C332260636083
:1059A000204610BDB00D0108A814010810B5074B22
:1059B00003F108023C330446026040F8043FFFF75D
:1059C00095FF2046FDF7D0FF204610BDA814010822
:1059D000036870B5DB680446984763685A682368B3
:1059E0001AB99B68BDE8704018475B68156898470E
:1059F000281A0028636808DC5A68916859601B6897
:105A0000002BEAD050689847E7E721685A680B698D
:105A10001068BDE8704018470B460146184600F074
:105A200001B800BF13460A460146022005F058BCE3
:105A3000014B1868704700BFD805002008B5002149
:105A4000044605F0A9FC044B1868C36B03B19847E2
:105A50002046FDF74FFF00BFEC14010800293DD0A0
:105A600070B505460C4608B1836B7BB3B4F90C30B6
:105A70000BB9002070BD2146284600F039F8E36AD2
:105A8000064633B1E169284698470028B8BF4FF071
:105A9000FF36A3891B061CD4216B41B104F14003DE
:105AA000994202D028460AF0D9F900232363616C99
:105AB00021B128460AF0D2F90023636400F0C4F94A
:105AC0000023A38100F0C2F9304670BD00F0B6F9A2
:105AD000CCE7216928460AF0C1F9DDE700207047CC
